:1000000000800010F50000004D01000053010000C9
:10001000590100005F0100006501000000000000C0
:100020000000000000000000000000006B01000064
:10003000710100000000000077010000E5020000EF
:100040007D0100007D0100007D0100007D010000B8
:100050007D0100007D0100007D0100007D010000A8
:100060007D0100007D0100007D0100007D01000098
:100070007D0100007D0100007D0100007D01000088
:100080007D0100007D0100007D0100007D01000078
:100090007D0100007D0100007D0100007D01000068
:1000A0007D0100007D0100007D0100007D01000058
:1000B0007D0100007D0100007D0100007D01000048
:1000C0007D0100007D0100007D010000603E000018
:1000D0000000001058000000603E000000C0072033
:1000E00000000000580000107403000000C007204A
:1000F0000000000080B582B000AF0F4B7B600F4B5B
:100100003B6007E07A68131D7B603B68191D39600E
:1001100012681A603B680A4A9342F3D309480A49B5
:100120004FF000028842B8BF40F8042BFADB01F020
:100130004FF800F0B9FFFEE7603E0000000000103D
:100140005800001058000010CC03001080B400AF1D
:10015000FEE780B400AFFEE780B400AFFEE780B4F6
:1001600000AFFEE780B400AFFEE780B400AFFEE76B
:1001700080B400AFFEE780B400AFFEE780B400AF0C
:10018000FEE7FFFF80B483B000AF03463960FB7128
:1001900097F90730002B0BDA3B68DAB20C49FB7990
:1001A00003F00F03043BD200D2B20B441A7609E0ED
:1001B0003B68DAB2074997F90730D200D2B20B4454
:1001C00083F8002300BF0C37BD4680BC704700BFDA
:1001D00000ED00E000E100E080B582B000AF7860A3
:1001E0007B68B3F1807F01D3012311E07B6823F0AA
:1001F0007F43094A013B53601F214FF0FF30FFF757
:10020000C1FF054B00229A60034B07221A600023AE
:1002100018460837BD4680BD10E000E080B487B0C6
:1002200000AFF860B9607A603B6000237B61FB68D7
:100230003B61BB68002B49D07B68012B46D93B68EA
:10024000012B45D93B68242B42D8FB68002B0DDAE3
:100250003B695B423B61FB685B42FB607B69BA6860
:1002600013442D221A707B6901337B617B69013352
:100270007B613A693B68B2FBF3F33B613B69002B5E
:10028000F4DC7B697A689A4224D37B69BA681344A8
:1002900000221A70124B1A68FB683968B3FBF1F13F
:1002A000386800FB01F15B1A1A447B69013B7B61F2
:1002B0007B69B9680B4412781A70FA683B68B2FB24
:1002C000F3F3FB60FB68002BE4DC04E000BF02E01A
:1002D00000BF00E000BF1C37BD4680BC704700BFB8
:1002E0000000001080B400AF044B1B680133034AC8
:1002F000136000BFBD4680BC704700BF64000010A3
:1003000080B400AF024B1B681846BD4680BC7047E6
:100310006400001080B588B000AF0223BB700023DA
:100320003B710023FB7000233B7007237B703B462F
:10033000184602F0DDF908237B703B46184602F0B0
:10034000D7F909237B703B46184602F0D1F9002308
:10035000BB7002233B7002237B703B46184602F0C1
:10036000C7F907F10803184602F0C2FB07F10803BA
:100370001946054802F04EFB0121034802F0D6FB66
:1003800000BF2037BD4680BD0000034080B582B06D
:1003900000AF0223BB700A237B7000233B703B46F7
:1003A000184602F0A5F90B237B703B46184602F075
:1003B0009FF90649064801F0B3FE0121044801F007
:1003C00001FF00BF0837BD4680BD00BFA086010009
:1003D00000000A4080B594B000AF772387F84B3017
:1003E0000023FB64AA233B71391D97F84B3001228F
:1003F000184601F04FF8391D97F84B300222184685
:1004000001F020F83B791B021AB27B791BB213432F
:10041000A7F84830AC233B71391D97F84B300122C7
:10042000184601F037F8391D97F84B30022218466C
:1004300001F008F83B791B021AB27B791BB2134317
:10044000A7F84630AE233B71391D97F84B30012297
:10045000184601F01FF8391D97F84B300222184654
:1004600000F0F0FF3B791B021AB27B791BB21343F9
:10047000A7F84430B0233B71391D97F84B30012267
:10048000184601F007F8391D97F84B30022218463C
:1004900000F0D8FF3B791B021AB27B791BB21343E1
:1004A0001BB2A7F84230B2233B71391D97F84B308D
:1004B0000122184600F0EEFF391D97F84B3002225A
:1004C000184600F0BFFF3B791B021AB27B791BB2C2
:1004D00013431BB2A7F84030B4233B71391D97F882
:1004E0004B300122184600F0D5FF391D97F84B30EC
:1004F0000222184600F0A6FF3B791B021AB27B7954
:100500001BB213431BB2FB87B6233B71391D97F80F
:100510004B300122184600F0BDFF391D97F84B30D3
:100520000222184600F08EFF3B791B021AB27B793B
:100530001BB21343BB87B8233B71391D97F84B306F
:100540000122184600F0A6FF391D97F84B30022211
:10055000184600F077FF3B791B021AB27B791BB279
:1005600013437B87BA233B71391D97F84B30012227
:10057000184600F08FFF391D97F84B3002221846BD
:1005800000F060FF3B791B021AB27B791BB2134368
:100590003B87B7F938309BB201339BB23B87BC2312
:1005A0003B71391D97F84B300122184600F072FF5D
:1005B000391D97F84B300222184600F043FF3B7973
:1005C0001B021AB27B791BB21343FB86BE233B711D
:1005D000391D97F84B300122184600F05BFF391D9A
:1005E00097F84B300222184600F02CFF3B791B0293
:1005F0001AB27B791BB21343BB86D0233B71391DE2
:1006000097F84B300122184600F044FF391D97F847
:100610004B300122184600F015FF0346002B40F036
:10062000EB803B79552B40F0E780F4233B712E2380
:100630007B71391D97F84B300222184600F02AFFD3
:10064000052002F063FFF6233B71391D97F84B300C
:100650000122184600F01EFF391D97F84B30022288
:10066000184600F0EFFE3B791B027A7913433B6397
:100670000223FB85F4233B71B4237B71391D97F86A
:100680004B300222184600F005FF0E2002F03EFF1C
:10069000F6233B71391D97F84B300122184600F0C4
:1006A000F9FE391D97F84B300322184600F0CAFEB8
:1006B0003B791A047B791B021343BA791A43B7F9C1
:1006C0002E30C3F1080342FA03F3BB62FB8F3A6B8F
:1006D000D31AB7F8402002FB03F3DB137B62B7F9B0
:1006E0003630DA02B7F934107B6A0B4492FBF3F32D
:1006F0003B627A6A3B6A1344FB61FB69A3F57A6348
:10070000BB61B7F93A20BB6903FB03F31B1303FB7F
:1007100002F3DB127B62B7F94630BA6902FB03F3DE
:10072000DB123B627A6A3B6A13447B61B7F948305B
:100730009A007B691A44B7F92E3002FA03F30233A8
:100740009B103B61B7F94430BA6902FB03F35B13BA
:100750007B62B7F93C20BB6903FB03F31B1303FB6C
:1007600002F31B143B627A6A3B6A134402339B1008
:100770007B61B7F842307A6902F5004202FB03F36D
:10078000DB0BFB60BA6A3B69D31AB7F92E204CF237
:10079000503141FA02F202FB03F3BB60BB68002B4D
:1007A00006DBBB685A00FB68B2FBF3F3FB6405E0B1
:1007B000BA68FB68B2FBF3F35B00FB64FB6C1B12D3
:1007C000FA6C121202FB03F37B627B6A40F6DE32A4
:1007D00002FB03F31B147B62FB6C0C4A02FB03F36A
:1007E0001B143B627A6A3B6A134403F6CF631B1106
:1007F000FA6C1344FB6403E00021332000F0E8FDB1
:10080000FB6C18465037BD4680BD00BF43E3FFFF79
:1008100080B584B000AF40237B7300237B8100232D
:100820003B810023FB81F5233B71391D7B7B01223A
:10083000184600F02FFE0346002B32D10D2002F0A7
:1008400065FE391D7B7B0222184600F0FBFD3B79DB
:100850001B021AB27B791BB213431BB29BB223F06B
:1008600003037B817A8913465B019B1A9B00134427
:10087000002B02DA03F57F43FF331B149BB2063BC8
:100880009BB23B813B89FB81B7F90830002B01DA31
:100890000023FB81B7F90830642B06DD6423FB815C
:1008A00003E00021332000F093FDB7F90E30184625
:1008B0001037BD4680BDFFFF80B584B002AF002376
:1008C000009301235C4A0121012001F0ADF90023CE
:1008D00000930123594A0C21012001F0A5F90023BE
:1008E00000930123564A1721012001F09DF90023AE
:1008F0007B6000233B60534B1B68534A82FB03120F
:100900009210DB17D31A7B604E4B1A684E4B83FB59
:1009100002139910D317C91A0B469B000B445B00B6
:10092000D31A3B600A230A2248497868FFF776FC0D
:10093000002300930123454A0121302001F074F97E
:10094000002300930123424A01213C2001F06CF96D
:100950000A230A223D493868FFF760FC0023009310
:1009600001233A4A0121402001F05EF901220121D0
:10097000492000F037FF01220221492000F032FF18
:10098000012201214A2000F02DFF012202214A20EC
:1009900000F028FF0023009301232E4A01214C2060
:1009A00001F042F92C4B1B682C4A82FB03125211B6
:1009B000DB17D31A03F119000A230A222349FFF790
:1009C0002DFC002300930123204A0C21302001F04C
:1009D0002BF9002300930123214A0C21482001F028
:1009E00023F9204BB3F9003018460A230A2217498D
:1009F000FFF714FC002300930123144A17213A2027
:100A000001F012F9002300930123174A1721502007
:100A100001F00AF9134BB3F90030632B07DC002314
:100A200000930123114A1721462001F0FDF800BF71
:100A30000837BD4680BD00BFB03A0000B83A00009C
:100A4000C03A000058000010676666666800001033
:100A5000CC3A0000D03A00005C0000101F85EB513A
:100A6000D43A000060000010D83A0000DC3A0000E0
:100A700080B584B000AFF860B9607A60084AFB685E
:100A80009360074ABB685360054A7B68136004495A
:100A9000044801F0ADFE00BF1037BD4680BD00BF69
:100AA000740000100040024080B584B000AFF860D0
:100AB000B9607A60084AFB68D360074ABB689361F3
:100AC000054A7B68D3610449044801F091FE00BFE8
:100AD0001037BD4680BD00BF7400001000400240CA
:100AE00090B583B002AF244B1B781A469200134492
:100AF0009B00DBB20833D8B2204B1B781B01DBB262
:100B00000C33D9B21C4B1B780133DBB21A4692006E
:100B100013449B00DAB2194B1B781B01DBB20C3378
:100B2000DBB20124009400F005FF134B1B781A463A
:100B3000920013449B00DBB20833D8B20F4B1B78F2
:100B40001B01DBB20D33D9B20B4B1B780133DBB287
:100B50001A46920013449B00DAB2084B1B781B0123
:100B6000DBB20D33DBB20124009400F0E3FE00BFE2
:100B70000437BD4690BD00BF730000107200001026
:100B800080B582B002AF002300930C2360220C21B9
:100B9000002000F0CFFE002300930D2360220D21E2
:100BA000002000F0C7FE002300931C2360221C21BC
:100BB000002000F0BFFE002300931D2360221D21B2
:100BC000002000F0B7FE00BFBD4680BD80B483B0FA
:100BD00000AF78607B68082B05D1164B1B78013B72
:100BE000DAB2144B1A707B68102B05D1114B1B78AD
:100BF0000133DAB20F4B1A707B68012B0ED10E4B0A
:100C00001B78002B03D10C4B01221A7006E00A4B13
:100C10001B78012B02D1084B00221A70054B1B7860
:100C2000022B02D9034B02221A7000BF0C37BD46BB
:100C300080BC7047730000107200001080B485B053
:100C400000AFF860B9607A60FA68BB689A4201D276
:100C50007B6806E0FA687B689A4201D9BB6800E0CD
:100C6000FB6818461437BD4680BC704780B588B015
:100C700000AF78604C4BDB68BB604B4B9B69FB6003
:100C8000494BDB693B61484B9B687B61464B5B682A
:100C9000BB61454B1B68FB617B68022B1AD1434B40
:100CA0001B781A46424B1B78194613465B001344C7
:100CB0000B449B0007F12000034453F8183C581CD8
:100CC00013465B0013440B449B0007F120021344BE
:100CD00043F8180C7B68042B1AD1344B1B781A4646
:100CE000334B1B78194613465B0013440B449B009F
:100CF00007F12000034453F8183C581E13465B00CC
:100D000013440B449B0007F12002134443F8180CD2
:100D1000BB681F2201211846FFF790FF0346BB6006
:100D2000FB680C2201211846FFF788FF0346FB6091
:100D30003B6940F6B8324FF47A711846FFF77EFFF0
:100D400003463B617B69172200211846FFF776FFB7
:100D500003467B61BB693B2200211846FFF76EFF0B
:100D60000346BB61FB693B2200211846FFF766FF83
:100D70000346FB610D4B1B78002B02D0012B07D0E3
:100D80000DE0BB68F9683A691846FFF78DFE06E08A
:100D90007B69B969FA691846FFF76AFE00BF00BFB0
:100DA0002037BD4680BD00BF7400001072000010E7
:100DB0007300001080B584B002AFB649B64801F0A8
:100DC00073FDB44BDB68092B1ED80A230A22B349F2
:100DD0000020FFF723FA002300930123AF4A0221EA
:100DE000082000F021FFAB4BDB6818460A230A22DB
:100DF000AA49FFF713FA002300930123A74A02210F
:100E00000E2000F011FF0FE0A24BDB6818460A230A
:100E10000A22A249FFF702FA0023009301239F4A06
:100E20000221082000F000FF0023009301239C4AC8
:100E30000221142000F0F8FE964B9B69092B1ED866
:100E40000A230A2295490020FFF7E8F900230093BE
:100E50000123924A02211A2000F0E6FE8D4B9B6985
:100E600018460A230A228D49FFF7D8F90023009378
:100E700001238A4A0221202000F0D6FE0FE0854B94
:100E80009B6918460A230A228449FFF7C7F9002301
:100E900000930123814A02211A2000F0C5FE00239D
:100EA000009301237E4A0221262000F0BDFE794BEB
:100EB000DB6918460A230A227849FFF7AFF90023B5
:100EC00000930123754A02212C2000F0ADFE714BE6
:100ED0009B68092B1ED80A230A2270490020FFF7BD
:100EE0009DF90023009301236C4A1221082000F091
:100EF0009BFE684B9B6818460A230A226749FFF746
:100F00008DF9002300930123644A12210E2000F082
:100F10008BFE0FE05F4B9B6818460A230A225F494D
:100F2000FFF77CF90023009301235C4A122108207B
:100F300000F07AFE0023009301235A4A1221142064
:100F400000F072FE534B5B68092B1ED80A230A225D
:100F500052490020FFF762F90023009301234F4A12
:100F600012211A2000F060FE4A4B5B6818460A23E3
:100F70000A224A49FFF752F9002300930123474A06
:100F80001221202000F050FE0FE0424B5B68184613
:100F90000A230A224149FFF741F900230093012364
:100FA0003E4A12211A2000F03FFE00230093012345
:100FB0003C4A1221262000F037FE364B1B68092BD5
:100FC0001ED80A230A2235490020FFF727F90023FB
:100FD00000930123314A12212C2000F025FE2D4BD5
:100FE0001B6818460A230A222C49FFF717F9002329
:100FF00000930123294A1221322000F015FE0FE050
:10100000244B1B6818460A230A222449FFF706F9D5
:10101000002300930123214A12212C2000F004FE1A
:101020000023FB71FFF75CFD00F081F90346FB71C3
:10103000FB7903F00103002B04D0FFF7A1FD012091
:10104000FFF7C4FDFB7903F00803002B04D0FFF782
:1010500097FD0820FFF7BAFDFB7903F01003002B82
:1010600004D0FFF78DFD1020FFF7B0FDFB7903F0F2
:101070000203002B02D00220FFF7F8FDFB7903F0FA
:101080000403002B02D00420FFF7F0FD00BF083757
:10109000BD4680BD74000010004002406800001092
:1010A000CC3A0000E03A000080B582B000AF0123E6
:1010B000FB80FFF76BF9FFF72DF900F059FB00F00B
:1010C00027F93A4801F038FB002200210C20FFF7F5
:1010D000CFFC4FF4FD6206210D20FFF7E5FC012156
:1010E000324801F051FB00F065F9314800F0C6FDCF
:1010F000304B1B68304AA2FB03239B091846FFF7BD
:101100006BF80346002B00D0FEE7002000F0EEFC59
:10111000002000F0C4FE03461B09DBB203F001030C
:101120007B710021302000F053F900F0B9FD034637
:10113000224A1360FFF74EF90346214A1360FFF776
:1011400067FB03461A461F4B1A80002000F0A7FEDB
:1011500003461B09DBB203F001037B717B79002B93
:1011600012D1B7F90630012B02D0022B06D00CE0C9
:101170000223FB80002000F0B9FC06E00123FB8085
:10118000002000F0B3FC00E000BFB7F90630012BEF
:1011900001D1FFF791FBB7F90630022B01D1FFF720
:1011A00009FEC82002F0B2F9BBE700BF00400240D0
:1011B0000103000004000010D34D6210580000101D
:1011C0005C0000106000001080B400AFFEE7FFFF7D
:1011D00080B400AF4B4B2022C3F8A02100BF494B85
:1011E000D3F8A03103F04003002BF8D0454B032285
:1011F000C3F80421434B0022C3F8A821414B00222D
:10120000C3F8AC213F4B0122C3F80C213D4B3E4AB1
:10121000C3F884203B4BAA22C3F88C20394B5522BB
:10122000C3F88C20374B0122C3F88020354BAA220B
:10123000C3F88C20334B5522C3F88C2000BF314BB0
:10124000D3F8883003F08063002BF8D02D4B0322B5
:10125000C3F880202B4BAA22C3F88C20294B55229F
:10126000C3F88C2000BF274BD3F8883003F04073BD
:10127000002BF8D0234B2322C3F8A420214BAA2211
:10128000C3F8AC201F4B5522C3F8AC201D4B0122E4
:10129000C3F8A0201B4BAA22C3F8AC20194B55223F
:1012A000C3F8AC2000BF174BD3F8A83003F4806319
:1012B000002BF8D0134B0322C3F8A020114BAA2215
:1012C000C3F8AC200F4B5522C3F8AC2000BF0D4B28
:1012D000D3F8A83003F44073002BF8D0094B0B4A25
:1012E000C3F8C420074B0022C3F8C821054B1B6874
:1012F00023F47043034A43F48043136000BFBD46A8
:1013000080BC704700C00F4063000500DE872804E2
:1013100080B500AF00224FF46031002000F070FD76
:1013200000221821022000F06BFD00BF80BD80B5B7
:1013300084B000AF0023FB730023BB6000237B60FD
:10134000002000F0ACFDB860022000F0A8FD78603D
:10135000BB6803F40033002B03D1FB7B43F0010394
:10136000FB73BB6803F40043002B03D1FB7B43F00A
:101370000403FB73BB6803F48033002B03D1FB7BB6
:1013800043F01003FB737B6803F00803002B03D1C9
:10139000FB7B43F00203FB737B6803F01003002B1D
:1013A00003D1FB7B43F00803FB73FB7B184610372C
:1013B000BD4680BD80B500AF01220421022000F0AF
:1013C0001FFD0421022000F040FD00BF80BDFFFF93
:1013D00080B58AB000AF03463960FB71FF2387F800
:1013E0002730FB792C2B08D9FB797C2B05D8FB798E
:1013F0002D3B124AD35C87F827303B68002B02D084
:10140000FB7987F8273007F12703FB6000237B6116
:101410000123FB610421022000F02CFD07F10C03E5
:1014200000221946064801F0F5FB0421022000F0D5
:101430000CFD00BF2837BD4680BD00BF080000106E
:101440000000034080B590B000AF0346B9607A60F9
:10145000FB73FB7B7B610023BB610023FB61BB68EB
:101460007B627B68BB6203233B6307F114030022AA
:101470001946074800F022FF0346012B01D1002343
:1014800001E04FF0FF3318464037BD4680BD00BF36
:1014900000000A4080B590B000AF0346B9607A60A2
:1014A000FB73FB7B7B61BB68BB617B68FB610023DB
:1014B0007B620023BB6203233B6307F1140300221A
:1014C0001946074800F0FAFE0346012B01D100231C
:1014D00001E04FF0FF3318464037BD4680BD00BFE6
:1014E00000000A4080B588B000AF0346FB71802140
:1014F000022000F0BFFC4021002000F0BBFCFB1DDF
:10150000BB6000233B610123BB6107F1080300229C
:101510001946054801F07EFB4021002000F095FCB3
:1015200000BF2037BD4680BD0000034080B588B0B5
:1015300000AF0346FB718021022000F086FC4021B1
:10154000002000F097FCFB1DBB6000233B610123E2
:10155000BB6107F1080300221946054801F05AFB58
:101560004021002000F071FC00BF2037BD4680BD47
:101570000000034080B5ACB000AF03463960FB719A
:101580000023C7F8AC300BE007F12002D7F8AC30ED
:101590001344FA791A70D7F8AC300133C7F8AC307D
:1015A000D7F8AC303A689A42EED88021022000F099
:1015B0004CFC4021002000F05DFC07F12003BB60E3
:1015C00000233B613B68BB6107F108030022194619
:1015D000054801F01FFB4021002000F036FC00BF51
:1015E000B037BD4680BD00BF0000034080B500AFEE
:1015F0000220FFF777FF1220FFF774FF4020FFF76C
:1016000071FF2E20FFF76EFF8120FFF76BFF322066
:10161000FFF768FF8220FFF765FF8020FFF762FF7A
:10162000A120FFF75FFFA620FFF75CFFA820FFF7D0
:1016300059FF3F20FFF756FFD320FFF753FF40200D
:10164000FFF750FFAD20FFF74DFF8E20FFF74AFF59
:10165000C820FFF747FFD520FFF744FFF020FFF732
:1016600041FFD820FFF73EFF0520FFF73BFFD920C1
:10167000FFF738FFF120FFF735FFDA20FFF732FFE1
:101680001220FFF72FFFDB20FFF72CFF3420FFF79E
:1016900029FF9120FFF726FF3F20FFF723FF3F2080
:1016A000FFF720FF3F20FFF71DFF3F20FFF71AFF46
:1016B000AF20FFF717FFA420FFF714FF00BF80BD86
:1016C00090B585B000AF0446084611461A46234639
:1016D000FB710346BB710B467B7113463B71FA7974
:1016E0007B799A420FD97B79FB73FB797B71FB7B0A
:1016F000FB7108E03A79B979FB79184600F072F885
:10170000FB790133FB717A79FB799A42F2D200BFFF
:1017100000BF1437BD4690BD90B585B000AF0446FC
:10172000084611461A462346FB710346BB710B4619
:101730007B7113463B71BA797B799A420FD97B79D9
:10174000FB73BB797B71FB7BBB7108E03A79B9799C
:10175000FB79184600F046F8BB790133BB717A7902
:10176000BB799A42F2D200BF1437BD4690BDFFFF4D
:1017700080B582B000AF00237B60012202210220ED
:1017800000F03EFB01228021022000F039FB012203
:101790004021002000F034FB0221022000F06AFB0F
:1017A0004021002000F051FBFFF720FF4FF4407272
:1017B00000210B4802F02CF900237B6002E07B68DB
:1017C00001337B607B684FF6FE729342F7DD0221A6
:1017D000022000F03AFB00BF0837BD4680BD00BFC5
:1017E0009400001080B586B000AF0346FB710B4635
:1017F000BB7113467B7100233B61FB79602B00F2C8
:101800009180BB79402B00F28F80BB79072B02D8E7
:10181000B023FB7525E0BB790F2B02D8B123FB75F4
:101820001FE0BB79172B02D8B223FB7519E0BB79F7
:101830001F2B02D8B323FB7513E0BB79272B02D8EB
:10184000B423FB750DE0BB792F2B02D8B523FB75B4
:1018500007E0BB79372B02D8B623FB7501E0B7232D
:10186000FB75FB799BB21233FB81FB89DBB203F082
:101870000F037B73FB891B099BB2DBB243F01003A0
:101880003B73BB79DB08DBB2FB81FB89DB00FB81AF
:10189000BB799AB2FB89D31AFB81FB89012202FA38
:1018A00003F3FB72FB7D1846FFF71CFE7B7B18469B
:1018B000FFF718FE3B7B1846FFF714FEFB7DA3F1F4
:1018C000B00213465B0013445B011A46FB791344D4
:1018D0003B617B79002B0CD0154A3B6913441A7885
:1018E000FB7A1343D9B2124A3B6913440A461A7071
:1018F00010E00F4A3B6913441B785AB297F90B303A
:10190000DB435BB213405BB2D9B2094A3B69134473
:101910000A461A70064A3B6913441B781846FFF7BB
:1019200005FE02E000BF00E000BF1837BD4680BDE5
:101930009400001090B587B000AF044608461146E9
:101940001A462346FB710346BB710B467B71134657
:101950003B7100237B8200233B820023FB75002325
:10196000BB750023FB810023BB810023BB827B79F5
:101970009AB2FB799BB2D31A9BB27B823B799AB223
:10198000BB799BB2D31A9BB23B82B7F91230002BC2
:1019900007D197F828303A79B979F879FFF7BCFE82
:1019A000A1E0B7F91230002B02DD0123FB7501E045
:1019B000FF23FB75B7F91030002B07D197F82830BB
:1019C0007A79B979F879FFF77BFE8CE0B7F91030B6
:1019D000002B02DD0123BB7501E0FF23BB7597F9E6
:1019E00017309BB27A8A02FB03F39BB27B8297F992
:1019F00016309BB23A8A02FB03F39BB23B827B8A8E
:101A00005B009BB2FB813B8A5B009BB2BB81B7F959
:101A10001220B7F910309A4232DBBA897B8AD31A86
:101A20009BB2BB8220E097F82820B979FB79184651
:101A3000FFF7D8FEFA7DFB791344FB71B7F9143038
:101A4000002B05DABA8ABB8913449BB2BB820BE038
:101A5000BA89FB89D31A9AB2BB8A13449BB2BB8260
:101A6000BA7DBB791344BB71FA797B799A42DAD19A
:101A700097F82820B979FB791846FFF7B3FE31E0D3
:101A8000FA893B8AD31A9BB2BB8220E097F82820C0
:101A9000B979FB791846FFF7A5FEBA7DBB791344E7
:101AA000BB71B7F91430002B05DABA8AFB891344ED
:101AB0009BB2BB820BE0FA89BB89D31A9AB2BB8A6C
:101AC00013449BB2BB82FA7DFB791344FB71BA7954
:101AD0003B799A42DAD197F82820B979FB791846F0
:101AE000FFF780FE00BF1C37BD4690BD80B584B0B7
:101AF00000AF0346FB710023BB73FB79012B01D1BF
:101B0000FF23BB73B023FB7311E0FB7B1846FFF789
:101B1000E9FC0020FFF7E6FC1020FFF7E3FCBB7BAD
:101B200084211846FFF726FDFB7B0133FB73FB7B0B
:101B3000B72BEAD9BB7B4FF440721946034801F03A
:101B400067FF00BF1037BD4680BD00BF9400001086
:101B500090B585B000AF0446084611461A462346A4
:101B6000FB710346BB710B467B7113463B7100232F
:101B70003B730023FB730023BB7300237B73FB7950
:101B8000572B02D8BB79372B01D9002343E07B794F
:101B90001F2B03D997F90530002B01DA20237B7125
:101BA0007B79203B7B710023FB7330E07A79FB7BF0
:101BB0001B49D2000A4413441B783B730023BB73B8
:101BC00019E0BB7B174AD25C3B7B1340DBB2002B96
:101BD00003D197F820307B7301E03B797B737A7BEC
:101BE000B979FB791846FFF7FDFDFB790133FB71ED
:101BF000BB7B0133BB73BB7B052BE2D9BB790133C4
:101C0000BB71FB79063BFB71FB7B0133FB73FB7BF9
:101C1000072BCBD9012318461437BD4690BD00BF12
:101C2000143B00000C3B000090B585B002AF3A6059
:101C30001A460346FB710B46BB7113467B713B682A
:101C40001B78002B12D03B685A1C3A601A787C79BA
:101C5000B979F8793B7E00932346FFF779FF034675
:101C6000002B05D0FB790633FB71E8E700BF00E0ED
:101C700000BF00BF0C37BD4690BDFFFF80B582B0EE
:101C800000AF786000220421002000F0B9F8034A78
:101C90007B68136000BF0837BD4680BD9403001009
:101CA00080B584B000AF0023FB7300233B600023AA
:101CB000BB6000237B60002000F0F1F8034603F0D6
:101CC0000403002B14BF01230023DBB2FB7300BF0E
:101CD000002000F0E4F8034603F00403002B14BFD7
:101CE00001230023DBB21A46FB7B9A42F0D0FB7B38
:101CF000002B0CBF01230023DBB2FB73224B1B68BC
:101D00009847386000237B6019E000BF002000F096
:101D1000C6F8034603F00403002B14BF012300237D
:101D2000DBB21A46FB7B9A42F0D0FB7B002B0CBF48
:101D300001230023DBB2FB737B6801337B607B688C
:101D4000B3F5AA7FE1DB104B1B689847B860BA680F
:101D50003B689A4204D9BA683B68D31ABB6003E077
:101D6000BA683B68D31ABB60BB684FF4FA6202FBE7
:101D700003F3064AA2FB03231B0AA3F6AB23184670
:101D80001037BD4680BD00BF94030010C1C0C0C065
:101D900080B485B000AF0346FB710023FB60FB7984
:101DA000042B1CD801A252F823F000BFC11D000073
:101DB000C71D0000CD1D0000D31D0000D91D00006F
:101DC0000A4BFB600CE00A4BFB6009E0094BFB602F
:101DD00006E0094BFB6003E0084BFB6000E000BF3E
:101DE000FB6818461437BD4680BC704700C0092008
:101DF00020C0092040C0092060C0092080C00920FF
:101E000080B584B000AF03463960FB711346BB71E7
:101E1000FB791846FFF7BCFFF860FB68002B10D079
:101E2000BB79002B06D0FB681A683B681A43FB6835
:101E30001A6006E0FB681A683B68DB431A40FB68DF
:101E40001A6000BF1037BD4680BD80B584B000AFBA
:101E500003463960FB71FB791846FFF799FFF8607C
:101E6000FB68002B02D0FB683A689A6100BF10370C
:101E7000BD4680BD80B584B000AF03463960FB71BC
:101E8000FB791846FFF784FFF860FB68002B02D04F
:101E9000FB683A68DA6100BF1037BD4680BD80B587
:101EA00084B000AF0346FB71FB791846FFF770FF63
:101EB000F860FB68002B02D0FB685B6900E0002340
:101EC00018461037BD4680BD80B483B000AF0346CE
:101ED000FB71FB7903F01F03012202FA03F1054AAB
:101EE00097F907305B0942F8231000BF0C37BD4655
:101EF00080BC704700E100E080B483B000AF0346CF
:101F0000FB71FB7903F01F03012202FA03F1064A79
:101F100097F907305B09203342F8231000BF0C37D4
:101F2000BD4680BC704700BF00E100E080B483B0D4
:101F300000AF78607B680C4A934201D100230DE02A
:101F40007B680A4A934201D1012307E07B68084A73
:101F5000934201D1022301E04FF0FF3318460C37C2
:101F6000BD4680BC704700BF00C0014000C00540B6
:101F700000000A4080B483B000AF78607B68202204
:101F80001A607B6808229A6100BF7B681B6803F0B7
:101F90000803002BF9D07B6820229A617B685B687C
:101FA00003F0F80318460C37BD4680BC704780B478
:101FB00083B000AF78607B681B6803F02003002BC0
:101FC00002D07B6820229A617B6810221A607B68AD
:101FD00008229A6100BF0C37BD4680BC704780B4B0
:101FE00083B000AF78600B46FB707B681B6803F022
:101FF0002003002B02D07B6820229A61FA787B684C
:102000009A607B6808229A6100BF7B681B6803F0B6
:102010000803002BF9D07B685B6803F0F8031846CF
:102020000C37BD4680BC704780B485B000AFF86007
:10203000B9601346FB71FB79012B03D1FB680422C5
:102040001A6002E0FB6804229A61FB6808229A6128
:1020500000BFFB681B6803F00803002BF9D0FB6886
:102060009B68DAB2BB681A70FB685B6803F0F80320
:1020700018461437BD4680BC7047FFFF80B584B05A
:1020800000AF786039607B68214A93420BD07B684F
:10209000204A934207D07B681F4A934203D0DF2136
:1020A0001E48FFF791F87B68194A934208D10E2029
:1020B00001F0D4FA02463B68B2FBF3F3FB6018E090
:1020C0007B68144A934208D1262001F0C7FA0246E1
:1020D0003B68B2FBF3F3FB600BE07B680E4A934274
:1020E00007D1342001F0BAFA02463B68B2FBF3F3A1
:1020F000FB60FB685A087B681A617B681B69FA6899
:10210000D21A7B685A6100BF1037BD4680BD00BF40
:1021100000C0014000C0054000000A40143E00001D
:1021200080B582B000AF786039607B68214A934205
:102130000CD07B68204A934208D07B681F4A9342A8
:1021400004D040F207111E48FFF73EF87B68194A99
:10215000934208D10121802001F0B2FA02210E2021
:1021600001F010FA1AE07B68134A934209D1012169
:102170004FF4002001F0A4FA0221262001F002FA17
:102180000CE07B680D4A934210D101214FF0806032
:1021900001F096FA0221342001F0F4F939687868E8
:1021A000FFF76CFF7B6864229A6100E000BF08378C
:1021B000BD4680BD00C0014000C0054000000A408F
:1021C000143E000080B582B000AF78600B46FB7013
:1021D000FB78002B07D0FB78012B04D04FF4AC71B7
:1021E0001048FEF7F1FF7B680F4A93420CD07B68E2
:1021F0000E4A934208D07B680D4A934204D040F2C5
:1022000059110848FEF7E0FFFB78012B03D17B68EA
:1022100040221A6002E07B6840229A6100BF0837C2
:10222000BD4680BD143E000000C0014000C0054016
:1022300000000A4080B582B000AF78600B46FB70AA
:10224000FB78002B17D07B68194A934203D10A20F0
:10225000FFF73AFE27E07B68164A934203D10B2032
:10226000FFF732FE1FE07B68134A93421BD10C201C
:10227000FFF72AFE17E07B680D4A934203D10A203C
:10228000FFF73AFE0FE07B680A4A934203D10B2026
:10229000FFF732FE07E07B68074A934203D10C2028
:1022A000FFF72AFE00BF00BF0837BD4680BD00BF54
:1022B00000C0014000C0054000000A4080B588B061
:1022C00000AFF860B9601346FB71BB685B68FB61E7
:1022D000BB681B69BB61BB680022DA60BB68002277
:1022E0009A61BB6800225A62FB79002B40F024817E
:1022F000BB6800221A62BB685B68FB61BB681B6934
:10230000BB61BB680022DA60BB6800229A610023CF
:102310007B61F868FFF72EFE78617B69082B11D08E
:102320007B69102B0ED0BB681B6A5A1CBB681A62F3
:10233000BB681A6ABB68DB699A42DCD9BB687A69F8
:102340005A62F4E0BB689B68002B4AD0BB685B68AC
:10235000002B46D0BB681B68DBB25B00DBB21946C2
:10236000F868FFF73CFE78617B69182B33D0BB68B7
:102370001B6A5A1CBB681A62BB681A6ABB68DB69B5
:102380009A42B8D97B6943F40072BB685A62CEE0C6
:10239000FB691B781946F868FFF721FE78617B69B5
:1023A000282B10D0BB681B6A5A1CBB681A62BB681A
:1023B0001A6ABB68DB699A429DD97B6943F4007253
:1023C000BB685A62B3E0FB690133FB61BB68DB6841
:1023D0005A1CBB68DA60BB68DA68BB689B689A42C3
:1023E000D6D3BB689B68002B25D0BB685B68002BED
:1023F00021D0BB685B69002B1DD0BB681B69002B1B
:1024000019D0F868FFF7B6FD78617B69082B12D008
:102410007B69102B0FD0BB681B6A5A1CBB681A6201
:10242000BB681A6ABB68DB699A427FF664AFBB6817
:102430007A695A627BE0BB685B69002B72D0BB682B
:102440001B69002B6ED0BB681B68DBB25B00DBB284
:1024500043F00103DBB21946F868FFF7C0FD78616D
:102460007B69402B58D0BB681B6A5A1CBB681A6238
:10247000BB681A6ABB68DB699A427FF63CAF7B692E
:1024800043F40072BB685A6251E0BB689A69BB684A
:102490005B69013B9A421AD207F1130301221946E4
:1024A000F868FFF7C1FD78617B69502B2AD0BB68C3
:1024B0001B6A5A1CBB681A62BB681A6ABB68DB6974
:1024C0009A427FF618AFBB687A695A622FE007F12B
:1024D000130300221946F868FFF7A6FD78617B69AF
:1024E000582B0FD0BB681B6A5A1CBB681A62BB68AA
:1024F0001A6ABB68DB699A427FF6FDAEBB687A69EF
:102500005A6214E0BB695A1CBA61FA7C1A70BB6843
:102510009B695A1CBB689A61BB689A69BB685B6916
:102520009A42B2D3F868FFF742FD012326E0F8682B
:10253000FFF73DFD002321E0FB79012B1DD1F86859
:10254000FFF7F4FC0346DBB2FB74FB7C1946BB6867
:102550000C4A42F83130FB7C0A4ADB00134400226B
:102560005A60FB6808229A61FB6820221A600121E8
:10257000F868FFF75FFE012300E0002318462037CC
:10258000BD4680BD9803001080B487B000AF0346FD
:10259000FB710B46BB7113467B71BB797B61FB7989
:1025A0005B003B61174BFB607B690F2B05D97B6997
:1025B000103B7B613B6901333B613B699B00FA68DF
:1025C000134419687B695B00032202FA03F3DA43C0
:1025D0003B699B00F86803440A401A603B699B0012
:1025E000FA68134419687A797B695B009A403B6901
:1025F0009B00F86803440A431A6000BF1C37BD46BD
:1026000080BC704700C0024080B487B000AF034672
:10261000FB710B46BB7113467B71BB797B61FB7908
:102620005B003B61174BFB607B690F2B05D97B6916
:10263000103B7B613B6901333B613B699B00FA685E
:10264000134419687B695B00032202FA03F3DA433F
:102650003B699B00F86803440A401A603B699B0091
:10266000FA68134419687A797B695B009A403B6980
:102670009B00F86803440A431A6000BF1C37BD463C
:1026800080BC704740C0024080B485B000AF0346B4
:10269000FB710B46BB7113467B71144BFB607B795E
:1026A000012B0ED1FB799B00FA6813441968BB79A2
:1026B00001229A40FB799B00F86803440A431A60A0
:1026C0000FE0FB799B00FA6813441968BB7901227B
:1026D00002FA03F3DA43FB799B00F86803440A40EB
:1026E0001A6000BF1437BD4680BC704768C0024006
:1026F00080B582B000AF78607B6818787B685978C5
:102700007B689B781A46FFF73FFF7B6818787B68E9
:1027100059787B68DB781A46FFF776FF7B68187874
:102720007B6859787B681B791A46FFF7ADFF00BFBD
:102730000837BD4680BDFFFF80B582B000AF78602E
:102740007B680F4A934203D03E210E48FEF73CFDC2
:1027500001214FF4007000F0B3FF7B6800221A7073
:102760007B6800221A727B6800221A737B68FF2242
:102770001A747B6800221A6400BF0837BD4680BD0A
:1027800000400240243E000080B582B000AF786077
:102790000B46FB707B68144A934203D072211348A6
:1027A000FEF712FDFB78002B06D0FB78012B03D03F
:1027B00073210E48FEF708FDFB78012B08D17B68DA
:1027C0001B7ADBB243F00103DAB27B681A7207E0CE
:1027D0007B681B7ADBB203F01203DAB27B681A72F1
:1027E00000BF0837BD4680BD00400240243E0000C7
:1027F00080B582B000AF786039607B68284A934228
:1028000004D040F2B7112748FEF7DEFC3B68DB68D6
:10281000DBB203F01F03DAB27B6883F82C203B683D
:102820001B69DBB203F00703DAB27B6883F8302060
:102830003B685B699BB2C3F308039AB27B689A86D4
:102840003B689B68DBB203F01F03DAB27B6883F856
:1028500028203B685B68DBB203F03F03DAB27B6899
:1028600083F824203B681B68DBB203F03F03DAB235
:102870007B6883F820203B689B69DBB203F00F0381
:10288000DAB27B6883F838203B68DB699BB2C3F31C
:102890000B039AB27B689A8700BF0837BD4680BD9C
:1028A00000400240243E000080B582B000AF786056
:1028B00039607B68244A934204D040F2CD1123480A
:1028C000FEF782FC7B6893F82C30DBB203F01F022A
:1028D0003B68DA607B6893F83030DBB203F00702C4
:1028E0003B681A617B689B8E9BB2C3F308023B680E
:1028F0005A617B6893F82830DBB203F01F023B6813
:102900009A607B6893F82430DBB203F03F023B68A7
:102910005A607B6893F82030DBB203F03F023B68DB
:102920001A607B6893F83830DBB203F00F023B6823
:102930009A617B689B8F9BB2C3F30B023B68DA61A1
:1029400000BF0837BD4680BD00400240243E000065
:1029500080B586B000AF786039607B682A4A9342C0
:1029600007D07B68294A934203D043212848FEF7C9
:102970002BFC7B68244A934204D12A2000F06EFE8F
:10298000B86007E07B68214A934239D1142000F0F7
:1029900065FEB86000233B614FF0FF33FB6002230C
:1029A0007B6117E03B6901337A6902FB03F3BA6884
:1029B000B2FBF3F3FB60FA683B689A420AD93B69C1
:1029C00001333B613B69FF2B04D900233B617B69E9
:1029D00002337B61FA683B689A42E3D87B681B68E4
:1029E000DAB27B681A607B681A683B691B029BB28B
:1029F0001A437B681A607B69DAB27B681A6100E06F
:102A000000BF1837BD4680BD00800840000003406D
:102A1000343E000080B584B000AF786039607B68D8
:102A2000204A934207D07B681F4A934203D08121FA
:102A30001E48FEF7C9FB7B681A4A934205D1012163
:102A40004FF4001000F03CFE08E07B68164A934209
:102A500023D101214FF4806000F032FE3B685A68B8
:102A60003B689B681A433B681B691A433B681B68B9
:102A700013439BB2FB607B68FA681A603B68DB68B3
:102A800003F00F03FB607B68FA685A603B685B6980
:102A900019467868FFF75CFF00E000BF1037BD46BD
:102AA00080BD00BF0080084000000340343E0000AD
:102AB00080B582B000AF78607B680A4A934207D045
:102AC0007B68094A934203D0C0210848FEF77CFB8B
:102AD0007B681B68DBB203F00F03DBB218460837D4
:102AE000BD4680BD0080084000000340343E000029
:102AF00080B483B000AF78607B6800225A607B6846
:102B000000229A607B68084A5A617B6807221A6033
:102B10007B680022DA607B6800221A6100BF0C37F4
:102B2000BD4680BC704700BF40420F0080B582B0F8
:102B300000AF78600B46FB707B68144A934207D065
:102B40007B68134A934203D0E5211248FEF73CFB11
:102B5000FB78002B06D0FB78012B03D0E6210D4833
:102B6000FEF732FBFB78012B06D17B685B6843F0F4
:102B700002027B685A6005E07B685B6803F00D0227
:102B80007B685A6000BF0837BD4680BD00800840A2
:102B900000000340343E000080B582B000AF786092
:102BA0000B467B807B68094A934208D07B68084AC1
:102BB000934204D04FF49A710648FEF705FB7A88D9
:102BC0007B689A6000BF0837BD4680BD0080084022
:102BD00000000340343E000080B582B000AF786052
:102BE0007B68094A934208D07B68084A934204D024
:102BF0004FF4A2710648FEF7E7FA7B689B689BB228
:102C000018460837BD4680BD0080084000000340DC
:102C1000343E000080B58CB000AFF860B960134658
:102C2000FB71BB680022DA60BB6800225A60BB6897
:102C300000225A6104E0F868FFF7CEFF03467B618B
:102C4000FB68DB6803F00403002BF4D1FB6803226C
:102C50001A62F868FFF72CFF0346082B02D90123FC
:102C6000FB6101E00023FB61FB79002B40F0C18098
:102C7000FB69002B06D1BB689B68FB62BB681B68C5
:102C8000BB6294E0BB689B687B62BB681B683B626D
:102C90008DE0FB68DB6803F00203002B42D0BB68C9
:102CA0005A68BB681B699A423CD0BB681B68002B02
:102CB00017D1FB69002B09D1FF21F868FFF76CFFE2
:102CC000BB685B685A1CBB685A602BE04FF6FF710B
:102CD000F868FFF761FFBB685B689A1CBB685A60C5
:102CE00020E0FB69002B0FD1BB6A1B789BB2194611
:102CF000F868FFF751FFBB6A0133BB62BB685B68D2
:102D00005A1CBB685A600DE03B6A1B881946F8687C
:102D1000FFF742FF3B6A02333B62BB685B689A1C69
:102D2000BB685A60FB689B69BB61BB6903F0010328
:102D3000002B30D0BB6943F40072BB685A614FF07E
:102D4000FF330AE1F868FFF747FF03467B61BB6882
:102D50009B68002B11D0FB69002B07D17B69DAB28D
:102D6000FB6A1A70FB6A0133FB6206E07B699AB268
:102D70007B6A1A807B6A02337B62FB69002B05D178
:102D8000BB68DB685A1CBB68DA6004E0BB68DB68C0
:102D90009A1CBB68DA60FB68DB6803F00403002B55
:102DA00005D0BB68DA68BB681B699A42CAD1BB68A8
:102DB0005A68BB681B699A427FF46BAFBB68DA68DC
:102DC000BB681B699A427FF464AFBB684FF48072A2
:102DD0005A61BB681B68002B02D0BB685B68BCE013
:102DE000BB689B68002B02D0BB68DB68B5E00023A2
:102DF000B3E0FB79012B40F0AE8089E0BB681B6833
:102E0000002B17D1FB69002B09D1FF21F868FFF7D0
:102E1000C3FEBB685B685A1CBB685A602FE04FF664
:102E2000FF71F868FFF7B8FEBB685B689A1CBB6867
:102E30005A6024E0FB69002B11D1BB681B681A465D
:102E4000BB685B6813441B789BB21946F868FFF7B0
:102E5000A3FEBB685B685A1CBB685A600FE0BB6886
:102E60001B681A46BB685B6813441B881946F868E0
:102E7000FFF792FEBB685B689A1CBB685A60FB68F0
:102E80009B69BB61BB6903F00103002B34D0BB69B4
:102E900043F40072BB685A614FF0FF335DE0F8689D
:102EA000FFF79AFE03467B61BB689B68002B15D039
:102EB000FB69002B09D1BB689B681A46BB68DB68BD
:102EC00013447A69D2B21A7008E0BB689B681A464C
:102ED000BB68DB6813447A6992B21A80FB69002BE5
:102EE00005D1BB68DB685A1CBB68DA6004E0BB68CC
:102EF000DB689A1CBB68DA60FB68DB6803F00403DC
:102F0000002B05D0BB68DA68BB681B699A42C6D142
:102F1000FB68DB6803F00203002B06D0BB685A682D
:102F2000BB681B699A427FF469AFBB68DA68BB680B
:102F30001B699A4205D1BB685A68BB681B699A42F3
:102F400003D0FB680F225A6103E0BB684FF4807224
:102F50005A61002301E04FF0FF3318463037BD4679
:102F600080BDFFFF80B584B000AF78607B68032B25
:102F70001ED801A252F823F0892F0000932F0000E1
:102F80009D2F0000A72F0000022000F067FBF860D3
:102F90000EE0042000F062FBF86009E02C2000F055
:102FA0005DFBF86004E02E2000F058FBF86000BFE5
:102FB000FB6818461037BD4680BD00BF90B585B090
:102FC00000AF786039607868FFF7CCFF03461A4697
:102FD0004FF00003C7E902233B681A464FF0000395
:102FE000B96803FB01F0F96802FB01F14418B96804
:102FF000A1FB020163181946064A4FF0000300F0D6
:103000008BFB02460B46C7E90223BB681846143700
:10301000BD4690BD40420F0080B485B000AF7860DF
:103020004FF0FF33FB607B68B3F1402F02D10023E8
:10303000FB6013E07B680C4A934202D10123FB60E2
:103040000CE07B68094A934202D10223FB6005E051
:103050007B68074A934201D10323FB60FB68184653
:103060001437BD4680BC7047008000400000094016
:103070000040094080B584B000AF78600B46FB701B
:103080007B68B3F1402F0FD07B681C4A93420BD072
:103090007B681B4A934207D07B681A4A934203D04D
:1030A000A6211948FEF790F8FB78002B12D0FB7888
:1030B000012B0FD0FB78022B0CD0FB78032B09D00F
:1030C000FB78042B06D0FB78052B03D0A7210E48F4
:1030D000FEF77AF87B681B68DAB2FB78012101FA07
:1030E00003F3DBB21340FB73FB7B002B01D0012306
:1030F00000E0002318461037BD4680BD0080004028
:103100000000094000400940443E000080B582B004
:1031100000AF78600B46FB707B68B3F1402F0FD097
:103120007B68184A93420BD07B68174A934207D0BA
:103130007B68164A934203D0DD211548FEF744F818
:10314000FB78002B12D0FB78012B0FD0FB78022BE1
:103150000CD0FB78032B09D0FB78042B06D0FB782E
:10316000052B03D0DE210A48FEF72EF8FB7801225A
:1031700002FA03F31A467B681A6000BF0837BD469F
:1031800080BD00BF008000400000094000400940B1
:10319000443E000080B586B000AFF8600B467A6010
:1031A000FB72FB68B3F1402F10D0FB68564A934284
:1031B0000CD0FB68554A934208D0FB68544A9342AE
:1031C00004D040F22B115348FDF7FEFFFB7A002B91
:1031D0000DD0FB7A012B0AD0FB7A012B07D0FB7AAA
:1031E000012B04D04FF496714A48FDF7EDFFFB68C0
:1031F000B3F1402F08D10121022000F061FA002133
:10320000022000F0BFF927E0FB683F4A934208D153
:103210000121042000F054FA0021042000F0B2F94A
:103220001AE0FB68394A934209D101214FF480002A
:1032300000F046FA00212C2000F0A4F90CE0FB6815
:10324000334A934208D101214FF4000000F038FACC
:1032500000212E2000F096F9FB689B6A23F0030200
:10326000FB689A62FB689A6AFB689A62FB680022B4
:103270009A60FB6800221A61FB680022DA60FB6832
:103280005B6843F00202FB685A60FB685B6823F0EE
:103290000202FB685A60FB7A002B1AD17B683B6103
:1032A0003B691B78002B05D13B695B685A1EFB68A4
:1032B000DA6020E0F868FFF7AFFE02463B695B6822
:1032C00019461046FFF77AFE03465A1EFB68DA607D
:1032D00011E07B687B61FB689B6A23F00C02FB6852
:1032E0009A627B695B78012B05D1FB689B6A43F08E
:1032F0000402FB689A62FB684FF0FF321A6000BF5D
:103300001837BD4680BD00BF008000400000094066
:1033100000400940443E000080B582B000AF7860B4
:103320000B46FB707B68B3F1402F10D07B68124ACC
:1033300093420CD07B68114A934208D07B68104AB4
:10334000934204D04FF4CD710E48FDF73DFFFB785A
:10335000012B06D17B685B6843F001027B685A60F1
:1033600005E07B685B6823F001027B685A6000BF60
:103370000837BD4680BD00BF008000400000094006
:1033800000400940443E000080B582B000AF786044
:1033900039607B68B3F1402F10D07B68574A934265
:1033A0000CD07B68564A934208D07B68554A9342BA
:1033B00004D040F2D1115448FDF706FF3B681B7959
:1033C000002B10D03B681B79012B0CD03B681B797C
:1033D000022B08D03B681B79032B04D04FF4E97112
:1033E0004948FDF7F1FE3B681B78032B1ED801A26C
:1033F00052F823F0053400000F34000019340000A7
:10340000233400003B689A687B689A610FE03B6850
:103410009A687B68DA610AE03B689A687B681A629E
:1034200005E03B689A687B685A6200E0FEE77B68CB
:103430005A693B681B7819460B465B000B44072111
:1034400001FA03F3DB431A407B685A613B685B78FF
:10345000002B0DD07B685A693B681B7819460B46D8
:103460005B000B44012101FA03F31A437B685A61A4
:103470003B68DB78002B0ED07B685A693B681B7871
:1034800019460B465B000B440133012101FA03F39B
:103490001A437B685A613B689B78002B0ED07B688F
:1034A0005A693B681B7819460B465B000B44023394
:1034B000012101FA03F31A437B685A617B68DB6BD5
:1034C0003A68127852000432032101FA02F2D24320
:1034D0001A407B68DA637B68DB6B3A68127902F02A
:1034E00003013A6812785200043201FA02F21A43D8
:1034F0007B68DA6300BF0837BD4680BD00800040AE
:103500000000094000400940443E000080B588B0FA
:1035100000AF786001233B764FF47A73FB610023A0
:103520003B7301237B730023FB730123BB730023D5
:103530003B747B687B6107F118031A4600214FF04A
:103540004020FFF727FE07F10C0319464FF04020FB
:10355000FFF71AFF01214FF04020FFF7DDFE00BF0B
:1035600000214FF04020FFF785FD0346002BF7D0E8
:1035700000214FF04020FFF7C9FD00BF2037BD46B6
:1035800080BDFFFF80B485B000AF786039607B6894
:103590001F2B02D97B68203B00E07B68FB607B68C7
:1035A0001F2B18D81A4BD3F8A8310321FA6801FA57
:1035B00002F2D2431146164A0B40C2F8A831144B0E
:1035C000D3F8A8213968FB6801FA03F310491343C3
:1035D000C1F8A83117E00E4BD3F8AC310321FA68DB
:1035E00001FA02F2D2431146094A0B40C2F8AC314B
:1035F000074BD3F8AC213968FB6801FA03F304499F
:103600001343C1F8AC3100BF1437BD4680BC7047CE
:1036100000C00F4080B485B000AF78607B681F2B7E
:1036200006D87B68FB600C4BD3F8A831BB6006E082
:103630007B68203BFB60084BD3F8AC31BB60BA68B9
:10364000FB6822FA03F303F00303BB60BB68184670
:103650001437BD4680BC704700C00F4080B584B0B1
:1036600000AF7860154B1B68BB607868FFF7D2FF2E
:10367000F860FB68032B17D801A252F823F000BFB3
:1036800091360000973600009D360000A3360000FA
:103690000423FB6008E00123FB6005E00223FB60DC
:1036A00002E00823FB6000BFBA68FB68B2FBF3F3DB
:1036B000BB60BB6818461037BD4680BD04000010D3
:1036C00080B483B000AF78600B46FB70FB78012BB1
:1036D0000AD10F4BD3F8C42079680E4B0B400C492C
:1036E0001343C1F8C4300DE0FB78002B0AD1084B1E
:1036F000D3F8C4207B68DB431A400549054B1340CF
:10370000C1F8C43000BF0C37BD4680BC704700BF55
:1037100000C00F40DEF7EFEF53B94AB9002908BFE8
:1037200000281CBF4FF0FF314FF0FF3000F06EB9A2
:10373000ADF1080C6DE904CE00F006F8DDF804E008
:10374000DDE9022304B070472DE9F047089E0D46DD
:1037500004468E46002B40F083808A42174647D9A4
:10376000B2FA82F34BB1C3F1200105FA03FE20FA4D
:1037700001F19F4041EA0E0E9C404FEA1748BEFB04
:10378000F8FC1FFA87F908FB1CE20CFB09F0210C7E
:1037900041EA024290420AD9BA180CF1FF3180F096
:1037A0001881904240F21581ACF1020C3A44121A91
:1037B000B2FBF8F008FB102200FB09F1A4B244EAC6
:1037C0000244A14209D93C1900F1FF3280F0038183
:1037D000A14240F2008102383C44641A002140EAD0
:1037E0000C401EB10022DC40C6E90042BDE8F08773
:1037F00002B9FFDEB2FA82F3002B4FD18D1A0121FC
:103800004FEA124E1FFA82F8B5FBFEFC0EFB1C5568
:1038100008FB0CF0220C42EA0545A84207D97D19A5
:103820000CF1FF3202D2A84200F2E98094462D1A30
:10383000B5FBFEF00EFB105508FB00F8A4B244EAFD
:103840000544A04507D93C1900F1FF3202D2A0453A
:1038500000F2D9801046A4EB080440EA0C40C0E70F
:103860008B4208D9002E00F0B1800021C6E9000586
:103870000846BDE8F087B3FA83F100294BD1AB428B
:1038800002D3824200F2B980841A65EB030301205F
:103890009E46002EAAD0C6E9004EA7E79F40C3F17E
:1038A0002002D1404FEA174EB1FBFEF01FFA87F815
:1038B0000EFB101124FA02F29D4000FB08FC2A4383
:1038C000150C45EA0145AC4504FA03F409D97D1904
:1038D00000F1FF3180F08F80AC4540F28C800238DF
:1038E0003D44A5EB0C05B5FBFEF10EFB115C01FBA5
:1038F00008F995B245EA0C45A94507D97D1901F1AA
:10390000FF3274D2A94572D902393D44A5EB0905AD
:1039100041EA004178E7C1F120078B4022FA07FC19
:103920004CEA030C25FA07F44FEA1C4EB4FBFEF9EF
:103930001FFA8CF80EFB194420FA07F309FB08FA6A
:103940008D401D432B0C43EA0444A24502FA01F2C8
:1039500000FA01F309D91CEB040409F1FF3048D245
:10396000A24546D9A9F102096444A4EB0A04B4FBB8
:10397000FEF00EFB104400FB08FAADB245EA044429
:10398000A24508D91CEB040400F1FF352DD2A24555
:103990002BD90238644440EA0940A0FB0289A4EB19
:1039A0000A044C45C6464D4619D316D05EB1B3EB5A
:1039B0000E0264EB050404FA07F722FA01F31F4331
:1039C000CC40C6E900740021BDE8F087314630469E
:1039D0000CE78C46EBE61046FFE64345E6D2B8EB33
:1039E000020E69EB0C050138E0E72846D3E71146E3
:1039F0008CE78146B9E7084673E7084649E7ACF12A
:103A0000020C3D4413E702383C4424E7704700BFF2
:103A1000F0B4860746D0541E002A3CD00346CAB2F2
:103A200001E0013C37D303F8012B9D07F9D1032CAA
:103A30002AD9CDB245EA05250F2C45EA054534D9EA
:103A4000A4F1100222F00F0C03F1200716096744BD
:103A500003F1100242E9045542E902551032BA421C
:103A6000F8D1721C14F00C0F03EB021204F00F06D5
:103A700013D0331F23F003030433134442F8045BD1
:103A80009342FBD106F003042CB1CAB21C4403F8E4
:103A9000012B9C42FBD1F0BC704734461346002CEE
:103AA000F3D1F8E714460346C1E71A462646E0E795
:103AB00054656D703A20000050726573733A2000AF
:103AC00048756D69646974793A2000002E00000021
:103AD0004300000068506100250000002000000045
:103AE0003A000000303132333435363738396162CC
:103AF000636465666768696A6B6C6D6E6F7071721E
:103B0000737475767778797A00FFFFFF8040201014
:103B10000804020100000000000000008080808096
:103B200080008000A0A0A000000000005050F850CD
:103B3000F85050002078A07028F02000C0C8102055
:103B4000409818006090A040A8906800C040800095
:103B50000000000020408080804020008040202025
:103B600020408000005020F820500000002020F865
:103B7000202000000000000000C04080000000F88D
:103B8000000000000000000000C0C000000810207D
:103B900040800000708898A8C888700020602020AD
:103BA00020207000708808304080F800708808304D
:103BB0000888700010305090F8101000F880F0085D
:103BC00008887000304080F088887000F808102065
:103BD00040404000708888708888700070888878BD
:103BE0000810600000C0C000C0C000000000C0C0DD
:103BF00000C0408010204080402010000000F800ED
:103C0000F8000000804020102040800070880810DC
:103C10002000200070880868A8A87000708888F8C4
:103C200088888800F08888F08888F0007088808014
:103C300080887000E09088888890E000F88080F0AC
:103C40008080F800F88080F080808000708880801C
:103C500098887800888888F888888800E040404004
:103C60004040E00038101010109060008890A0C014
:103C7000A0908800808080808080F80088D8A8A8E4
:103C8000888888008888C8A898888800708888886C
:103C900088887000F08888F080808000708888882C
:103CA000A8906800F08888F0A090880070888070E4
:103CB00008887000F820202020202000888888882C
:103CC000888870008888888888502000888888A81C
:103CD000A8A85000888850205088880088885020E4
:103CE00020202000F80810204080F800E08080802C
:103CF0008080E0000080402010080000E0202020AC
:103D00002020E0002050880000000000000000009B
:103D1000000000F880402000000000000000700853
:103D2000788878008080B0C88888F00000006090B3
:103D30008090600008086898888878000000708883
:103D4000F8807000205040E040404000000078883B
:103D5000887808708080B0C888888800400040401B
:103D60004040400020006020202020C0808090A0A3
:103D7000C0A09000C04040404040E0000000D0A8FB
:103D8000A88888000000B0D090909000000060905B
:103D9000909060000000E09090E0808000007090C3
:103DA0009070101000005060404040000000708093
:103DB0006010E0004040E040404060000000909013
:103DC000909070000000888888502000000088884B
:103DD000A8A8500000008850205088000000909053
:103DE000907010600000F8102040F80020404080E3
:103DF0004040200040404040404040008040402043
:103E0000404080006890000000000000F8F8F8F8DA
:103E1000F8F8F8002E6C7063313778785F69326398
:103E20002E6300FF2E6C7063313778785F72746395
:103E30002E6300FF2E6C7063313778785F73737078
:103E40002E6300FF2E6C7063313778785F74696D74
:083E500065722E6300FFFFFF05
:083E5800F0F8FF7F01000000FB
:103E6000E43A000000E1F505FBDFFF24AFE0A22B00
:103E70003230A72022FFFFFFFFFFFFFF213874A889
:103E8000707110298FACFF7CFFB9046103F91278BF
:103E90002CFFFFFFFFFFFFFFFFFFFEFF2138F8A809
:103EA000707102398FACFF7CFFB9B86103F91278E9
:083EB000BCFFFFFFFFFFFF7DD7
:04000003000000F504
:00000001FF
